{
  "_format": "hh-sol-artifact-1",
  "contractName": "Escrow",
  "sourceName": "contracts/escrow/Escrow.sol",
  "abi": [
    {
      "anonymous": false,
      "inputs": [
        {
          "indexed": true,
          "internalType": "address",
          "name": "payer",
          "type": "address"
        },
        {
          "indexed": true,
          "internalType": "address",
          "name": "payee",
          "type": "address"
        },
        {
          "indexed": false,
          "internalType": "uint256",
          "name": "maxLockedAmount",
          "type": "uint256"
        },
        {
          "indexed": false,
          "internalType": "uint256",
          "name": "maxLockSeconds",
          "type": "uint256"
        },
        {
          "indexed": false,
          "internalType": "uint256",
          "name": "maxLockCounts",
          "type": "uint256"
        }
      ],
      "name": "Auth",
      "type": "event"
    },
    {
      "anonymous": false,
      "inputs": [
        {
          "indexed": true,
          "internalType": "address",
          "name": "payee",
          "type": "address"
        },
        {
          "indexed": false,
          "internalType": "uint256",
          "name": "jobId",
          "type": "uint256"
        },
        {
          "indexed": false,
          "internalType": "address",
          "name": "token",
          "type": "address"
        },
        {
          "indexed": true,
          "internalType": "address",
          "name": "payer",
          "type": "address"
        },
        {
          "indexed": false,
          "internalType": "uint256",
          "name": "amount",
          "type": "uint256"
        }
      ],
      "name": "Canceled",
      "type": "event"
    },
    {
      "anonymous": false,
      "inputs": [
        {
          "indexed": true,
          "internalType": "address",
          "name": "payee",
          "type": "address"
        },
        {
          "indexed": false,
          "internalType": "uint256",
          "name": "jobId",
          "type": "uint256"
        },
        {
          "indexed": false,
          "internalType": "address",
          "name": "token",
          "type": "address"
        },
        {
          "indexed": true,
          "internalType": "address",
          "name": "payer",
          "type": "address"
        },
        {
          "indexed": false,
          "internalType": "uint256",
          "name": "amount",
          "type": "uint256"
        },
        {
          "indexed": false,
          "internalType": "bytes",
          "name": "proof",
          "type": "bytes"
        }
      ],
      "name": "Claimed",
      "type": "event"
    },
    {
      "anonymous": false,
      "inputs": [
        {
          "indexed": true,
          "internalType": "address",
          "name": "payer",
          "type": "address"
        },
        {
          "indexed": false,
          "internalType": "address",
          "name": "token",
          "type": "address"
        },
        {
          "indexed": false,
          "internalType": "uint256",
          "name": "amount",
          "type": "uint256"
        }
      ],
      "name": "Deposit",
      "type": "event"
    },
    {
      "anonymous": false,
      "inputs": [
        {
          "indexed": false,
          "internalType": "address",
          "name": "payer",
          "type": "address"
        },
        {
          "indexed": false,
          "internalType": "address",
          "name": "payee",
          "type": "address"
        },
        {
          "indexed": false,
          "internalType": "uint256",
          "name": "jobId",
          "type": "uint256"
        },
        {
          "indexed": false,
          "internalType": "uint256",
          "name": "amount",
          "type": "uint256"
        },
        {
          "indexed": false,
          "internalType": "uint256",
          "name": "expiry",
          "type": "uint256"
        },
        {
          "indexed": false,
          "internalType": "address",
          "name": "token",
          "type": "address"
        }
      ],
      "name": "Lock",
      "type": "event"
    },
    {
      "anonymous": false,
      "inputs": [
        {
          "indexed": true,
          "internalType": "address",
          "name": "payer",
          "type": "address"
        },
        {
          "indexed": false,
          "internalType": "address",
          "name": "token",
          "type": "address"
        },
        {
          "indexed": false,
          "internalType": "uint256",
          "name": "amount",
          "type": "uint256"
        }
      ],
      "name": "Withdraw",
      "type": "event"
    },
    {
      "inputs": [
        {
          "internalType": "address",
          "name": "token",
          "type": "address"
        },
        {
          "internalType": "address",
          "name": "payee",
          "type": "address"
        },
        {
          "internalType": "uint256",
          "name": "maxLockedAmount",
          "type": "uint256"
        },
        {
          "internalType": "uint256",
          "name": "maxLockSeconds",
          "type": "uint256"
        },
        {
          "internalType": "uint256",
          "name": "maxLockCounts",
          "type": "uint256"
        }
      ],
      "name": "authorize",
      "outputs": [],
      "stateMutability": "nonpayable",
      "type": "function"
    },
    {
      "inputs": [
        {
          "internalType": "address[]",
          "name": "token",
          "type": "address[]"
        },
        {
          "internalType": "address[]",
          "name": "payee",
          "type": "address[]"
        },
        {
          "internalType": "uint256[]",
          "name": "maxLockedAmount",
          "type": "uint256[]"
        },
        {
          "internalType": "uint256[]",
          "name": "maxLockSeconds",
          "type": "uint256[]"
        },
        {
          "internalType": "uint256[]",
          "name": "maxLockCounts",
          "type": "uint256[]"
        }
      ],
      "name": "authorizeMultiple",
      "outputs": [],
      "stateMutability": "nonpayable",
      "type": "function"
    },
    {
      "inputs": [
        {
          "internalType": "uint256",
          "name": "jobId",
          "type": "uint256"
        },
        {
          "internalType": "address",
          "name": "token",
          "type": "address"
        },
        {
          "internalType": "address",
          "name": "payer",
          "type": "address"
        },
        {
          "internalType": "address",
          "name": "payee",
          "type": "address"
        }
      ],
      "name": "cancelExpiredLock",
      "outputs": [],
      "stateMutability": "nonpayable",
      "type": "function"
    },
    {
      "inputs": [
        {
          "internalType": "uint256[]",
          "name": "jobId",
          "type": "uint256[]"
        },
        {
          "internalType": "address[]",
          "name": "token",
          "type": "address[]"
        },
        {
          "internalType": "address[]",
          "name": "payer",
          "type": "address[]"
        },
        {
          "internalType": "address[]",
          "name": "payee",
          "type": "address[]"
        }
      ],
      "name": "cancelExpiredLocks",
      "outputs": [],
      "stateMutability": "nonpayable",
      "type": "function"
    },
    {
      "inputs": [
        {
          "internalType": "uint256",
          "name": "jobId",
          "type": "uint256"
        },
        {
          "internalType": "address",
          "name": "token",
          "type": "address"
        },
        {
          "internalType": "address",
          "name": "payer",
          "type": "address"
        },
        {
          "internalType": "uint256",
          "name": "amount",
          "type": "uint256"
        },
        {
          "internalType": "bytes",
          "name": "proof",
          "type": "bytes"
        }
      ],
      "name": "claimLock",
      "outputs": [],
      "stateMutability": "nonpayable",
      "type": "function"
    },
    {
      "inputs": [
        {
          "internalType": "uint256",
          "name": "jobId",
          "type": "uint256"
        },
        {
          "internalType": "address",
          "name": "token",
          "type": "address"
        },
        {
          "internalType": "address",
          "name": "payer",
          "type": "address"
        },
        {
          "internalType": "uint256",
          "name": "amount",
          "type": "uint256"
        },
        {
          "internalType": "bytes",
          "name": "proof",
          "type": "bytes"
        }
      ],
      "name": "claimLockAndWithdraw",
      "outputs": [],
      "stateMutability": "nonpayable",
      "type": "function"
    },
    {
      "inputs": [
        {
          "internalType": "uint256[]",
          "name": "jobId",
          "type": "uint256[]"
        },
        {
          "internalType": "address[]",
          "name": "token",
          "type": "address[]"
        },
        {
          "internalType": "address[]",
          "name": "payer",
          "type": "address[]"
        },
        {
          "internalType": "uint256[]",
          "name": "amount",
          "type": "uint256[]"
        },
        {
          "internalType": "bytes[]",
          "name": "proof",
          "type": "bytes[]"
        }
      ],
      "name": "claimLocks",
      "outputs": [],
      "stateMutability": "nonpayable",
      "type": "function"
    },
    {
      "inputs": [
        {
          "internalType": "uint256[]",
          "name": "jobId",
          "type": "uint256[]"
        },
        {
          "internalType": "address[]",
          "name": "token",
          "type": "address[]"
        },
        {
          "internalType": "address[]",
          "name": "payer",
          "type": "address[]"
        },
        {
          "internalType": "uint256[]",
          "name": "amount",
          "type": "uint256[]"
        },
        {
          "internalType": "bytes[]",
          "name": "proof",
          "type": "bytes[]"
        }
      ],
      "name": "claimLocksAndWithdraw",
      "outputs": [],
      "stateMutability": "nonpayable",
      "type": "function"
    },
    {
      "inputs": [
        {
          "internalType": "uint256",
          "name": "jobId",
          "type": "uint256"
        },
        {
          "internalType": "address",
          "name": "token",
          "type": "address"
        },
        {
          "internalType": "address",
          "name": "payer",
          "type": "address"
        },
        {
          "internalType": "uint256",
          "name": "amount",
          "type": "uint256"
        },
        {
          "internalType": "uint256",
          "name": "expiry",
          "type": "uint256"
        }
      ],
      "name": "createLock",
      "outputs": [],
      "stateMutability": "nonpayable",
      "type": "function"
    },
    {
      "inputs": [
        {
          "internalType": "uint256[]",
          "name": "jobId",
          "type": "uint256[]"
        },
        {
          "internalType": "address[]",
          "name": "token",
          "type": "address[]"
        },
        {
          "internalType": "address[]",
          "name": "payer",
          "type": "address[]"
        },
        {
          "internalType": "uint256[]",
          "name": "amount",
          "type": "uint256[]"
        },
        {
          "internalType": "uint256[]",
          "name": "expiry",
          "type": "uint256[]"
        }
      ],
      "name": "createLocks",
      "outputs": [],
      "stateMutability": "nonpayable",
      "type": "function"
    },
    {
      "inputs": [
        {
          "internalType": "address",
          "name": "token",
          "type": "address"
        },
        {
          "internalType": "uint256",
          "name": "amount",
          "type": "uint256"
        }
      ],
      "name": "deposit",
      "outputs": [],
      "stateMutability": "nonpayable",
      "type": "function"
    },
    {
      "inputs": [
        {
          "internalType": "address[]",
          "name": "token",
          "type": "address[]"
        },
        {
          "internalType": "uint256[]",
          "name": "amount",
          "type": "uint256[]"
        }
      ],
      "name": "depositMultiple",
      "outputs": [],
      "stateMutability": "nonpayable",
      "type": "function"
    },
    {
      "inputs": [
        {
          "internalType": "address",
          "name": "token",
          "type": "address"
        },
        {
          "internalType": "address",
          "name": "payer",
          "type": "address"
        },
        {
          "internalType": "address",
          "name": "payee",
          "type": "address"
        }
      ],
      "name": "getAuthorizations",
      "outputs": [
        {
          "components": [
            {
              "internalType": "address",
              "name": "payee",
              "type": "address"
            },
            {
              "internalType": "uint256",
              "name": "maxLockedAmount",
              "type": "uint256"
            },
            {
              "internalType": "uint256",
              "name": "currentLockedAmount",
              "type": "uint256"
            },
            {
              "internalType": "uint256",
              "name": "maxLockSeconds",
              "type": "uint256"
            },
            {
              "internalType": "uint256",
              "name": "maxLockCounts",
              "type": "uint256"
            },
            {
              "internalType": "uint256",
              "name": "currentLocks",
              "type": "uint256"
            }
          ],
          "internalType": "struct Escrow.auth[]",
          "name": "",
          "type": "tuple[]"
        }
      ],
      "stateMutability": "view",
      "type": "function"
    },
    {
      "inputs": [
        {
          "internalType": "address",
          "name": "token",
          "type": "address"
        }
      ],
      "name": "getFunds",
      "outputs": [
        {
          "components": [
            {
              "internalType": "uint256",
              "name": "available",
              "type": "uint256"
            },
            {
              "internalType": "uint256",
              "name": "locked",
              "type": "uint256"
            }
          ],
          "internalType": "struct Escrow.userFunds",
          "name": "",
          "type": "tuple"
        }
      ],
      "stateMutability": "view",
      "type": "function"
    },
    {
      "inputs": [
        {
          "internalType": "address",
          "name": "token",
          "type": "address"
        },
        {
          "internalType": "address",
          "name": "payer",
          "type": "address"
        },
        {
          "internalType": "address",
          "name": "payee",
          "type": "address"
        }
      ],
      "name": "getLocks",
      "outputs": [
        {
          "components": [
            {
              "internalType": "uint256",
              "name": "jobId",
              "type": "uint256"
            },
            {
              "internalType": "address",
              "name": "payer",
              "type": "address"
            },
            {
              "internalType": "address",
              "name": "payee",
              "type": "address"
            },
            {
              "internalType": "uint256",
              "name": "amount",
              "type": "uint256"
            },
            {
              "internalType": "uint256",
              "name": "expiry",
              "type": "uint256"
            },
            {
              "internalType": "address",
              "name": "token",
              "type": "address"
            }
          ],
          "internalType": "struct Escrow.lock[]",
          "name": "",
          "type": "tuple[]"
        }
      ],
      "stateMutability": "view",
      "type": "function"
    },
    {
      "inputs": [
        {
          "internalType": "address",
          "name": "payer",
          "type": "address"
        },
        {
          "internalType": "address",
          "name": "token",
          "type": "address"
        }
      ],
      "name": "getUserFunds",
      "outputs": [
        {
          "components": [
            {
              "internalType": "uint256",
              "name": "available",
              "type": "uint256"
            },
            {
              "internalType": "uint256",
              "name": "locked",
              "type": "uint256"
            }
          ],
          "internalType": "struct Escrow.userFunds",
          "name": "",
          "type": "tuple"
        }
      ],
      "stateMutability": "view",
      "type": "function"
    },
    {
      "inputs": [
        {
          "internalType": "address[]",
          "name": "token",
          "type": "address[]"
        },
        {
          "internalType": "uint256[]",
          "name": "amount",
          "type": "uint256[]"
        }
      ],
      "name": "withdraw",
      "outputs": [],
      "stateMutability": "nonpayable",
      "type": "function"
    }
  ],
  "bytecode": "0x608060405234801561001057600080fd5b506001600055613c27806100256000396000f3fe608060405234801561001057600080fd5b506004361061010b5760003560e01c80637d3d2336116100a2578063dc697a5a11610071578063dc697a5a1461026d578063de6d6d961461028d578063decebbce146102a0578063df00c9b7146102ff578063e46c3b291461031257600080fd5b80637d3d233614610214578063842d2c201461023457806389464ccf14610247578063b24adc041461025a57600080fd5b806357d92e45116100de57806357d92e45146101c85780635ffd0f2a146101db57806378a90e19146101ee578063797e566c1461020157600080fd5b806315fac1cc146101105780633a8ae44f146101255780633f918c03146101a257806347e7ef24146101b5575b600080fd5b61012361011e3660046131ba565b610325565b005b610182610133366004613207565b604080518082018252600080825260209182018190526001600160a01b039485168152600180835283822094909516815292815291819020815180830190925280548252909201549082015290565b604080518251815260209283015192810192909252015b60405180910390f35b6101236101b036600461323a565b61034b565b6101236101c3366004613287565b61036f565b6101236101d6366004613366565b61038f565b6101236101e93660046134bc565b6103a4565b6101236101fc3660046135ff565b6104b0565b61012361020f3660046136c3565b6106a5565b610227610222366004613726565b610733565b6040516101999190613769565b6101236102423660046137ef565b610a83565b61012361025536600461383d565b610a98565b6101236102683660046135ff565b610b74565b61028061027b366004613726565b610bf7565b60405161019991906138e9565b61012361029b3660046136c3565b610ee6565b6101826102ae36600461395d565b6040805180820190915260008082526020820152503360009081526001602081815260408084206001600160a01b039590951684529381529183902083518085019094528054845201549082015290565b61012361030d366004613978565b610f69565b610123610320366004613366565b611061565b61032d6110a5565b61033a85858585856110ff565b6103446001600055565b5050505050565b6103536110a5565b61035f848484846113f6565b6103696001600055565b50505050565b6103776110a5565b6103818282611da3565b61038b6001600055565b5050565b6103976110a5565b61033a8585858585611fb4565b6103ac6110a5565b835185511480156103be575082518551145b80156103cb575081518551145b80156103d8575080518551145b6103fd5760405162461bcd60e51b81526004016103f4906139f7565b60405180910390fd5b60005b85518110156104a55761049386828151811061041e5761041e613a1e565b602002602001015186838151811061043857610438613a1e565b602002602001015186848151811061045257610452613a1e565b602002602001015186858151811061046c5761046c613a1e565b602002602001015186868151811061048657610486613a1e565b60200260200101516110ff565b8061049d81613a4a565b915050610400565b506103446001600055565b6104b86110a5565b835185511480156104ca575082518551145b80156104d7575081518551145b80156104e4575080518551145b6105005760405162461bcd60e51b81526004016103f4906139f7565b60005b85518110156105a85761059686828151811061052157610521613a1e565b602002602001015186838151811061053b5761053b613a1e565b602002602001015186848151811061055557610555613a1e565b602002602001015186858151811061056f5761056f613a1e565b602002602001015186868151811061058957610589613a1e565b6020026020010151611fb4565b806105a081613a4a565b915050610503565b5060005b84518110156104a557336000908152600160205260408120865182908890859081106105da576105da613a1e565b60200260200101516001600160a01b03166001600160a01b031681526020019081526020016000206000015411156106935761069385828151811061062157610621613a1e565b602002602001015160016000336001600160a01b03166001600160a01b03168152602001908152602001600020600088858151811061066257610662613a1e565b60200260200101516001600160a01b03166001600160a01b031681526020019081526020016000206000015461261e565b8061069d81613a4a565b9150506105ac565b6106ad6110a5565b80518251146106ce5760405162461bcd60e51b81526004016103f4906139f7565b60005b8251811015610728576107168382815181106106ef576106ef613a1e565b602002602001015183838151811061070957610709613a1e565b6020026020010151611da3565b8061072081613a4a565b9150506106d1565b5061038b6001600055565b600354606090600090815b8181101561084c576001600160a01b038716158061078d57506003818154811061076a5761076a613a1e565b60009182526020909120600560069092020101546001600160a01b038881169116145b806107da57506001600160a01b03851615806107da5750600381815481106107b7576107b7613a1e565b60009182526020909120600260069092020101546001600160a01b038681169116145b8061082757506001600160a01b038616158061082757506003818154811061080457610804613a1e565b60009182526020909120600160069092020101546001600160a01b038781169116145b1561083a578261083681613a4a565b9350505b8061084481613a4a565b91505061073e565b506000826001600160401b03811115610867576108676132b1565b6040519080825280602002602001820160405280156108c757816020015b6040805160c08101825260008082526020808301829052928201819052606082018190526080820181905260a082015282526000199092019101816108855790505b5090506000925060005b82811015610a78576001600160a01b03881615806109205750600381815481106108fd576108fd613a1e565b60009182526020909120600560069092020101546001600160a01b038981169116145b8061096d57506001600160a01b038616158061096d57506003818154811061094a5761094a613a1e565b60009182526020909120600260069092020101546001600160a01b038781169116145b806109ba57506001600160a01b03871615806109ba57506003818154811061099757610997613a1e565b60009182526020909120600160069092020101546001600160a01b038881169116145b15610a6657600381815481106109d2576109d2613a1e565b60009182526020918290206040805160c08101825260069093029091018054835260018101546001600160a01b0390811694840194909452600281015484169183019190915260038101546060830152600481015460808301526005015490911660a08201528251839086908110610a4c57610a4c613a1e565b60200260200101819052508380610a6290613a4a565b9450505b80610a7081613a4a565b9150506108d1565b509695505050505050565b610a8b6110a5565b61033a85858585856126d8565b610aa06110a5565b82518451148015610ab2575081518451145b8015610abf575080518451145b610adb5760405162461bcd60e51b81526004016103f4906139f7565b60005b8451811015610b6957610b57858281518110610afc57610afc613a1e565b6020026020010151858381518110610b1657610b16613a1e565b6020026020010151858481518110610b3057610b30613a1e565b6020026020010151858581518110610b4a57610b4a613a1e565b60200260200101516113f6565b80610b6181613a4a565b915050610ade565b506103696001600055565b610b7c6110a5565b83518551148015610b8e575082518551145b8015610b9b575081518551145b8015610ba8575080518551145b610bc45760405162461bcd60e51b81526004016103f4906139f7565b60005b85518110156104a557610be586828151811061052157610521613a1e565b80610bef81613a4a565b915050610bc7565b60606001600160a01b038316610c1f5760405162461bcd60e51b81526004016103f490613a65565b6001600160a01b038416610c455760405162461bcd60e51b81526004016103f490613a8c565b6001600160a01b038084166000908152600260209081526040808320938816835292905290812054815b81811015610d04576001600160a01b0385161580610cdf57506001600160a01b038087166000908152600260209081526040808320938b16835292905220805482908110610cbf57610cbf613a1e565b60009182526020909120600690910201546001600160a01b038681169116145b15610cf25782610cee81613a4a565b9350505b80610cfc81613a4a565b915050610c6f565b506000826001600160401b03811115610d1f57610d1f6132b1565b604051908082528060200260200182016040528015610d9257816020015b610d7f6040518060c0016040528060006001600160a01b0316815260200160008152602001600081526020016000815260200160008152602001600081525090565b815260200190600190039081610d3d5790505b5090506000925060005b82811015610a78576001600160a01b0386161580610e0c57506001600160a01b038088166000908152600260209081526040808320938c16835292905220805482908110610dec57610dec613a1e565b60009182526020909120600690910201546001600160a01b038781169116145b15610ed4576001600160a01b038088166000908152600260209081526040808320938c16835292905220805482908110610e4857610e48613a1e565b60009182526020918290206040805160c081018252600690930290910180546001600160a01b03168352600181015493830193909352600283015490820152600382015460608201526004820154608082015260059091015460a08201528251839086908110610eba57610eba613a1e565b60200260200101819052508380610ed090613a4a565b9450505b80610ede81613a4a565b915050610d9c565b610eee6110a5565b8051825114610f0f5760405162461bcd60e51b81526004016103f4906139f7565b60005b825181101561072857610f57838281518110610f3057610f30613a1e565b6020026020010151838381518110610f4a57610f4a613a1e565b602002602001015161261e565b80610f6181613a4a565b915050610f12565b610f716110a5565b83518551148015610f83575082518551145b8015610f90575081518551145b8015610f9d575080518551145b610fb95760405162461bcd60e51b81526004016103f4906139f7565b60005b85518110156104a55761104f868281518110610fda57610fda613a1e565b6020026020010151868381518110610ff457610ff4613a1e565b602002602001015186848151811061100e5761100e613a1e565b602002602001015186858151811061102857611028613a1e565b602002602001015186868151811061104257611042613a1e565b60200260200101516126d8565b8061105981613a4a565b915050610fbc565b6110696110a5565b6110768585858585611fb4565b3360009081526001602090815260408083206001600160a01b038816845290915290205461033a90859061261e565b600260005414156110f85760405162461bcd60e51b815260206004820152601f60248201527f5265656e7472616e637947756172643a207265656e7472616e742063616c6c0060448201526064016103f4565b6002600055565b6001600160a01b0385166111255760405162461bcd60e51b81526004016103f490613a8c565b6001600160a01b03841661116b5760405162461bcd60e51b815260206004820152600d60248201526c496e76616c696420706179656560981b60448201526064016103f4565b3360009081526002602090815260408083206001600160a01b03891684529091528120545b808210156112ec573360009081526002602090815260408083206001600160a01b038b811685529252909120805491881691849081106111d2576111d2613a1e565b60009182526020909120600690910201546001600160a01b031614156112da573360009081526002602090815260408083206001600160a01b038b168452909152902080548691908490811061122a5761122a613a1e565b60009182526020808320600160069093020191909101929092553381526002825260408082206001600160a01b038b1683529092522080548591908490811061127557611275613a1e565b60009182526020808320600360069093020191909101929092553381526002825260408082206001600160a01b038b168352909252208054849190849081106112c0576112c0613a1e565b9060005260206000209060060201600401819055506112ec565b816112e481613a4a565b925050611190565b8082141561139f573360009081526002602081815260408084206001600160a01b038c81168652908352818520825160c0810184528c831681528085018c8152938101878152606082018c8152608083018c815260a084018a8152855460018082018855968c5298909a209351600690980290930180546001600160a01b031916979095169690961784559351918301919091559151938101939093559051600383015551600482015590516005909101555b60408051868152602081018690529081018490526001600160a01b0387169033907f118cb6c6a02e26bfdb39cab8d70573499942c4ee3f0d7616d3c4100fe9163d9d9060600160405180910390a350505050505050565b60035460009081905b8083101561157457426003848154811061141b5761141b613a1e565b90600052602060002090600602016004015410801561154f575086158061146557506003838154811061145057611450613a1e565b90600052602060002090600602016000015487145b80156114b357506001600160a01b03861615806114b357506003838154811061149057611490613a1e565b60009182526020909120600560069092020101546001600160a01b038781169116145b801561150157506001600160a01b03851615806115015750600383815481106114de576114de613a1e565b60009182526020909120600160069092020101546001600160a01b038681169116145b801561154f57506001600160a01b038416158061154f57506003838154811061152c5761152c613a1e565b60009182526020909120600260069092020101546001600160a01b038581169116145b15611562578161155e81613a4a565b9250505b8261156c81613a4a565b9350506113ff565b8161158157505050610369565b6000826001600160401b0381111561159b5761159b6132b1565b6040519080825280602002602001820160405280156115c4578160200160208202803683370190505b50905060008094505b82851015611c3c5742600386815481106115e9576115e9613a1e565b90600052602060002090600602016004015410801561171d575088158061163357506003858154811061161e5761161e613a1e565b90600052602060002090600602016000015489145b801561168157506001600160a01b038816158061168157506003858154811061165e5761165e613a1e565b60009182526020909120600560069092020101546001600160a01b038981169116145b80156116cf57506001600160a01b03871615806116cf5750600385815481106116ac576116ac613a1e565b60009182526020909120600160069092020101546001600160a01b038881169116145b801561171d57506001600160a01b038616158061171d5750600385815481106116fa576116fa613a1e565b60009182526020909120600260069092020101546001600160a01b038781169116145b15611c2a576000600260006003888154811061173b5761173b613a1e565b60009182526020808320600160069093020191909101546001600160a01b031683528201929092526040018120600380549192918990811061177f5761177f613a1e565b60009182526020808320600560069093020191909101546001600160a01b0316835282019290925260400181205491505b8181101561192a57600387815481106117cb576117cb613a1e565b6000918252602080832060026006909302018201546001600160a01b038d8116855292825260408085208f85168652909252922080549190921691908390811061181757611817613a1e565b60009182526020909120600690910201546001600160a01b03161415611918576003878154811061184a5761184a613a1e565b60009182526020808320600360069093020191909101546001600160a01b03808d168452600283526040808520918f1685529252912080548390811061189257611892613a1e565b906000526020600020906006020160020160008282546118b29190613ab3565b90915550506001600160a01b03808a166000908152600260209081526040808320938e16835292905220805460019190839081106118f2576118f2613a1e565b906000526020600020906006020160050160008282546119129190613ab3565b90915550505b8061192281613a4a565b9150506117b0565b506003868154811061193e5761193e613a1e565b906000526020600020906006020160030154600160006003898154811061196757611967613a1e565b60009182526020808320600160069093020191909101546001600160a01b031683528201929092526040018120600380549192918a9081106119ab576119ab613a1e565b60009182526020808320600560069093020191909101546001600160a01b03168352820192909252604001812080549091906119e8908490613aca565b90915550506003805487908110611a0157611a01613a1e565b9060005260206000209060060201600301546001600060038981548110611a2a57611a2a613a1e565b60009182526020808320600160069093020191909101546001600160a01b031683528201929092526040018120600380549192918a908110611a6e57611a6e613a1e565b60009182526020808320600560069093020191909101546001600160a01b0316835282019290925260400181206001018054909190611aae908490613ab3565b90915550506003805487908110611ac757611ac7613a1e565b6000918252602090912060016006909202010154600380546001600160a01b039092169188908110611afb57611afb613a1e565b906000526020600020906006020160020160009054906101000a90046001600160a01b03166001600160a01b03167f5bcb66e310a3be233290f5d61fba34fe58a0e8045b4678714af2c7986f3a5e5060038981548110611b5d57611b5d613a1e565b90600052602060002090600602016000015460038a81548110611b8257611b82613a1e565b906000526020600020906006020160050160009054906101000a90046001600160a01b031660038b81548110611bba57611bba613a1e565b906000526020600020906006020160030154604051611bf5939291909283526001600160a01b03919091166020830152604082015260600190565b60405180910390a385838381518110611c1057611c10613a1e565b602090810291909101015281611c2581613a4a565b925050505b84611c3481613a4a565b9550506115cd565b8151600095505b80861015611d975760038054611c5b90600190613ab3565b81548110611c6b57611c6b613a1e565b90600052602060002090600602016003848881518110611c8d57611c8d613a1e565b602002602001015181548110611ca557611ca5613a1e565b60009182526020909120825460069092020190815560018083015490820180546001600160a01b03199081166001600160a01b03938416179091556002808501549084018054831691841691909117905560038085015481850155600480860154908501556005948501549490930180549091169390911692909217909155805480611d3357611d33613ae2565b6000828152602081206006600019909301928302018181556001810180546001600160a01b03199081169091556002820180548216905560038201839055600482019290925560050180549091169055905585611d8f81613a4a565b965050611c43565b50505050505050505050565b6001600160a01b038216611df15760405162461bcd60e51b8152602060048201526015602482015274496e76616c696420746f6b656e206164647265737360581b60448201526064016103f4565b3360009081526001602090815260408083206001600160a01b038616845290915281208054839290611e24908490613aca565b9091555050604080516001600160a01b03841681526020810183905233917f5548c837ab068cf56a2c2479df0882a4922fd203edb7517321831d95078c5f62910160405180910390a26040516370a0823160e01b81523060048201526000906001600160a01b038416906370a0823190602401602060405180830381865afa158015611eb4573d6000803e3d6000fd5b505050506040513d601f19601f82011682018060405250810190611ed89190613af8565b9050611eef6001600160a01b038416333085612e8e565b611ef98183612ef9565b6040516370a0823160e01b81523060048201526001600160a01b038516906370a0823190602401602060405180830381865afa158015611f3d573d6000803e3d6000fd5b505050506040513d601f19601f82011682018060405250810190611f619190613af8565b1015611faf5760405162461bcd60e51b815260206004820152601a60248201527f5472616e7366657220616d6f756e7420697320746f6f206c6f7700000000000060448201526064016103f4565b505050565b6001600160a01b038316611fda5760405162461bcd60e51b81526004016103f490613a65565b6001600160a01b0384166120005760405162461bcd60e51b81526004016103f490613a8c565b600085116120405760405162461bcd60e51b815260206004820152600d60248201526c125b9d985b1a59081a9bd89259609a1b60448201526064016103f4565b6040805160c081018252600080825260208201819052918101829052606081018290526080810182905260a081018290526003549091905b808210156121b5576003828154811061209357612093613a1e565b60009182526020909120600690910201600201546001600160a01b0316331480156120ef5750600382815481106120cc576120cc613a1e565b60009182526020909120600160069092020101546001600160a01b038781169116145b801561211e57506003828154811061210957612109613a1e565b90600052602060002090600602016000015488145b156121a3576003828154811061213657612136613a1e565b60009182526020918290206040805160c08101825260069093029091018054835260018101546001600160a01b0390811694840194909452600281015484169183019190915260038101546060830152600481015460808301526005015490911660a082015292506121b5565b816121ad81613a4a565b925050612078565b60408301516001600160a01b031633146122025760405162461bcd60e51b815260206004820152600e60248201526d131bd8dac81b9bdd08199bdd5b9960921b60448201526064016103f4565b42836080015110156122225761221a888888336113f6565b505050610344565b84836060015110156122685760405162461bcd60e51b815260206004820152600f60248201526e082dadeeadce840e8dede40d0d2ced608b1b60448201526064016103f4565b506001600160a01b038086166000908152600260209081526040808320938a16835292905290812054905b818110156123c9576001600160a01b038781166000908152600260209081526040808320938c168352929052208054339190839081106122d5576122d5613a1e565b60009182526020909120600690910201546001600160a01b031614156123b75760608401516001600160a01b038089166000908152600260209081526040808320938d1683529290522080548390811061233157612331613a1e565b906000526020600020906006020160020160008282546123519190613ab3565b90915550506001600160a01b038088166000908152600260209081526040808320938c168352929052208054600191908390811061239157612391613a1e565b906000526020600020906006020160050160008282546123b19190613ab3565b90915550505b806123c181613a4a565b915050612293565b508483606001516123da9190613ab3565b6001600160a01b038088166000908152600160209081526040808320938c1683529290529081208054909190612411908490613aca565b909155505060608301516001600160a01b038088166000908152600160208181526040808420948d1684529390529181209091018054909190612455908490613ab3565b90915550503360009081526001602090815260408083206001600160a01b038b1684529091528120805487929061248d908490613aca565b90915550506003546124a190600190613ab3565b82101561256657600380546124b890600190613ab3565b815481106124c8576124c8613a1e565b9060005260206000209060060201600383815481106124e9576124e9613a1e565b60009182526020909120825460069092020190815560018083015490820180546001600160a01b03199081166001600160a01b039384161790915560028085015490840180548316918416919091179055600380850154908401556004808501549084015560059384015493909201805490921692169190911790555b600380548061257757612577613ae2565b6000828152602081206006600019909301928302018181556001810180546001600160a01b0319908116909155600282018054821690556003820183905560048201929092556005018054909116905590556040516001600160a01b0387169033907f77aeb72af8b0efaf7fd8c746d2fb78653ae489dd88dea7a851cb354e4cdc4eed9061260c908c908c908b908b90613b69565b60405180910390a35050505050505050565b3360009081526001602090815260408083206001600160a01b0386168452909152902054811161038b573360009081526001602090815260408083206001600160a01b03861684529091528120805483929061267b908490613ab3565b9091555050604080516001600160a01b03841681526020810183905233917f9b1bfa7fa9ee420a16e124f794c35ac9f90472acc99140eb2f6447c714cad8eb910160405180910390a261038b6001600160a01b0383163383612f0c565b6001600160a01b0383166126fe5760405162461bcd60e51b81526004016103f490613a65565b6001600160a01b0384166127245760405162461bcd60e51b81526004016103f490613a8c565b600082116127655760405162461bcd60e51b815260206004820152600e60248201526d125b9d985b1a5908185b5bdd5b9d60921b60448201526064016103f4565b600085116127a55760405162461bcd60e51b815260206004820152600d60248201526c125b9d985b1a59081a9bd89259609a1b60448201526064016103f4565b6040805160c08101825260008082526020808301829052828401829052606083018290526080830182905260a083018290526001600160a01b0387811683526001825284832090891683529052918220549091908411156128485760405162461bcd60e51b815260206004820181905260248201527f506179657220646f6573206e6f74206861766520656e6f7567682066756e647360448201526064016103f4565b506001600160a01b0380851660009081526002602090815260408083209389168352929052908120545b80821015612980576001600160a01b038087166000908152600260209081526040808320938b168352929052208054839081106128b1576128b1613a1e565b60009182526020909120600690910201546001600160a01b031633141561296e576001600160a01b038087166000908152600260209081526040808320938b1683529290522080548390811061290957612909613a1e565b60009182526020918290206040805160c081018252600690930290910180546001600160a01b03168352600181015493830193909352600283015490820152600382015460608201526004820154608082015260059091015460a08201529250612980565b8161297881613a4a565b925050612872565b82516001600160a01b031633146129c95760405162461bcd60e51b815260206004820152600d60248201526c139bc8185d5d1a08199bdd5b99609a1b60448201526064016103f4565b8260600151841115612a0f5760405162461bcd60e51b815260206004820152600f60248201526e08af0e0d2e4f240e8dede40d0d2ced608b1b60448201526064016103f4565b8260200151851115612a555760405162461bcd60e51b815260206004820152600f60248201526e082dadeeadce840e8dede40d0d2ced608b1b60448201526064016103f4565b8260200151858460400151612a6a9190613aca565b1115612ab85760405162461bcd60e51b815260206004820152601760248201527f45786365656473206d61784c6f636b6564416d6f756e7400000000000000000060448201526064016103f4565b82608001518360a0015110612b075760405162461bcd60e51b815260206004820152601560248201527445786365656473206d61784c6f636b436f756e747360581b60448201526064016103f4565b5060035460005b81811015612c1957866001600160a01b031660038281548110612b3357612b33613a1e565b60009182526020909120600160069092020101546001600160a01b0316148015612b945750336001600160a01b031660038281548110612b7557612b75613a1e565b60009182526020909120600260069092020101546001600160a01b0316145b8015612bc357508860038281548110612baf57612baf613a1e565b906000526020600020906006020160000154145b15612c075760405162461bcd60e51b81526020600482015260146024820152734a6f62496420616c72656164792065786973747360601b60448201526064016103f4565b80612c1181613a4a565b915050612b0e565b506001600160a01b038087166000908152600260209081526040808320938b16835292905220805486919084908110612c5457612c54613a1e565b90600052602060002090600602016002016000828254612c749190613aca565b90915550506001600160a01b038087166000908152600260209081526040808320938b1683529290522080546001919084908110612cb457612cb4613a1e565b90600052602060002090600602016005016000828254612cd49190613aca565b90915550506001600160a01b038087166000908152600160209081526040808320938b1683529290529081208054879290612d10908490613ab3565b90915550506001600160a01b038087166000908152600160208181526040808420948c1684529390529181209091018054879290612d4f908490613aca565b9250508190555060036040518060c001604052808a8152602001886001600160a01b03168152602001336001600160a01b031681526020018781526020018642612d999190613aca565b81526001600160a01b038a8116602092830181905284546001808201875560009687529584902085516006909202019081558484015195810180549684166001600160a01b03199788161790556040808601516002830180549186169189169190911790556060808701516003840155608080880151600485015560a0978801516005909401805494871694909916939093179097558051938d16845233948401949094529282018d9052938101899052908101879052908101919091527fb746b0421b0b98debe76bb312ec9fb701603af22ddb107f7e639b0187e4ff8809060c00160405180910390a15050505050505050565b6040516001600160a01b03808516602483015283166044820152606481018290526103699085906323b872dd60e01b906084015b60408051601f198184030181529190526020810180516001600160e01b03166001600160e01b031990931692909217909152612f3c565b6000612f058284613aca565b9392505050565b6040516001600160a01b038316602482015260448101829052611faf90849063a9059cbb60e01b90606401612ec2565b6000612f91826040518060400160405280602081526020017f5361666545524332303a206c6f772d6c6576656c2063616c6c206661696c6564815250856001600160a01b03166130119092919063ffffffff16565b9050805160001480612fb2575080806020019051810190612fb29190613ba0565b611faf5760405162461bcd60e51b815260206004820152602a60248201527f5361666545524332303a204552433230206f7065726174696f6e20646964206e6044820152691bdd081cdd58d8d9595960b21b60648201526084016103f4565b60606130208484600085613028565b949350505050565b6060824710156130895760405162461bcd60e51b815260206004820152602660248201527f416464726573733a20696e73756666696369656e742062616c616e636520666f6044820152651c8818d85b1b60d21b60648201526084016103f4565b600080866001600160a01b031685876040516130a59190613bc2565b60006040518083038185875af1925050503d80600081146130e2576040519150601f19603f3d011682016040523d82523d6000602084013e6130e7565b606091505b50915091506130f887838387613103565b979650505050505050565b6060831561316f578251613168576001600160a01b0385163b6131685760405162461bcd60e51b815260206004820152601d60248201527f416464726573733a2063616c6c20746f206e6f6e2d636f6e747261637400000060448201526064016103f4565b5081613020565b61302083838151156131845781518083602001fd5b8060405162461bcd60e51b81526004016103f49190613bde565b80356001600160a01b03811681146131b557600080fd5b919050565b600080600080600060a086880312156131d257600080fd5b6131db8661319e565b94506131e96020870161319e565b94979496505050506040830135926060810135926080909101359150565b6000806040838503121561321a57600080fd5b6132238361319e565b91506132316020840161319e565b90509250929050565b6000806000806080858703121561325057600080fd5b843593506132606020860161319e565b925061326e6040860161319e565b915061327c6060860161319e565b905092959194509250565b6000806040838503121561329a57600080fd5b6132a38361319e565b946020939093013593505050565b634e487b7160e01b600052604160045260246000fd5b604051601f8201601f191681016001600160401b03811182821017156132ef576132ef6132b1565b604052919050565b600082601f83011261330857600080fd5b81356001600160401b03811115613321576133216132b1565b613334601f8201601f19166020016132c7565b81815284602083860101111561334957600080fd5b816020850160208301376000918101602001919091529392505050565b600080600080600060a0868803121561337e57600080fd5b8535945061338e6020870161319e565b935061339c6040870161319e565b92506060860135915060808601356001600160401b038111156133be57600080fd5b6133ca888289016132f7565b9150509295509295909350565b60006001600160401b038211156133f0576133f06132b1565b5060051b60200190565b600082601f83011261340b57600080fd5b8135602061342061341b836133d7565b6132c7565b82815260059290921b8401810191818101908684111561343f57600080fd5b8286015b84811015610a78576134548161319e565b8352918301918301613443565b600082601f83011261347257600080fd5b8135602061348261341b836133d7565b82815260059290921b840181019181810190868411156134a157600080fd5b8286015b84811015610a7857803583529183019183016134a5565b600080600080600060a086880312156134d457600080fd5b85356001600160401b03808211156134eb57600080fd5b6134f789838a016133fa565b9650602088013591508082111561350d57600080fd5b61351989838a016133fa565b9550604088013591508082111561352f57600080fd5b61353b89838a01613461565b9450606088013591508082111561355157600080fd5b61355d89838a01613461565b9350608088013591508082111561357357600080fd5b506133ca88828901613461565b600082601f83011261359157600080fd5b813560206135a161341b836133d7565b82815260059290921b840181019181810190868411156135c057600080fd5b8286015b84811015610a785780356001600160401b038111156135e35760008081fd5b6135f18986838b01016132f7565b8452509183019183016135c4565b600080600080600060a0868803121561361757600080fd5b85356001600160401b038082111561362e57600080fd5b61363a89838a01613461565b9650602088013591508082111561365057600080fd5b61365c89838a016133fa565b9550604088013591508082111561367257600080fd5b61367e89838a016133fa565b9450606088013591508082111561369457600080fd5b6136a089838a01613461565b935060808801359150808211156136b657600080fd5b506133ca88828901613580565b600080604083850312156136d657600080fd5b82356001600160401b03808211156136ed57600080fd5b6136f9868387016133fa565b9350602085013591508082111561370f57600080fd5b5061371c85828601613461565b9150509250929050565b60008060006060848603121561373b57600080fd5b6137448461319e565b92506137526020850161319e565b91506137606040850161319e565b90509250925092565b602080825282518282018190526000919060409081850190868401855b828110156137e257815180518552868101516001600160a01b039081168887015286820151811687870152606080830151908701526080808301519087015260a091820151169085015260c09093019290850190600101613786565b5091979650505050505050565b600080600080600060a0868803121561380757600080fd5b853594506138176020870161319e565b93506138256040870161319e565b94979396509394606081013594506080013592915050565b6000806000806080858703121561385357600080fd5b84356001600160401b038082111561386a57600080fd5b61387688838901613461565b9550602087013591508082111561388c57600080fd5b613898888389016133fa565b945060408701359150808211156138ae57600080fd5b6138ba888389016133fa565b935060608701359150808211156138d057600080fd5b506138dd878288016133fa565b91505092959194509250565b602080825282518282018190526000919060409081850190868401855b828110156137e257815180516001600160a01b0316855286810151878601528581015186860152606080820151908601526080808201519086015260a0908101519085015260c09093019290850190600101613906565b60006020828403121561396f57600080fd5b612f058261319e565b600080600080600060a0868803121561399057600080fd5b85356001600160401b03808211156139a757600080fd5b6139b389838a01613461565b965060208801359150808211156139c957600080fd5b6139d589838a016133fa565b955060408801359150808211156139eb57600080fd5b61353b89838a016133fa565b6020808252600d908201526c125b9d985b1a59081a5b9c1d5d609a1b604082015260600190565b634e487b7160e01b600052603260045260246000fd5b634e487b7160e01b600052601160045260246000fd5b6000600019821415613a5e57613a5e613a34565b5060010190565b6020808252600d908201526c24b73b30b634b2103830bcb2b960991b604082015260600190565b6020808252600d908201526c24b73b30b634b2103a37b5b2b760991b604082015260600190565b600082821015613ac557613ac5613a34565b500390565b60008219821115613add57613add613a34565b500190565b634e487b7160e01b600052603160045260246000fd5b600060208284031215613b0a57600080fd5b5051919050565b60005b83811015613b2c578181015183820152602001613b14565b838111156103695750506000910152565b60008151808452613b55816020860160208601613b11565b601f01601f19169290920160200192915050565b84815260018060a01b0384166020820152826040820152608060608201526000613b966080830184613b3d565b9695505050505050565b600060208284031215613bb257600080fd5b81518015158114612f0557600080fd5b60008251613bd4818460208701613b11565b9190910192915050565b602081526000612f056020830184613b3d56fea26469706673582212203709d055a7af88da88686a1ad2388e99fb59bef3a7e3f498356fe3e0086445af64736f6c634300080c0033",
  "linkReferences": {},
  "deployedLinkReferences": {}
}